{
  "_format": "hh-sol-artifact-1",
  "contractName": "GenaToken",
  "sourceName": "contracts/GenaToken.sol",
  "abi": [
    {
      "inputs": [
        {
          "internalType": "string",
          "name": "name",
          "type": "string"
        },
        {
          "internalType": "string",
          "name": "symbol",
          "type": "string"
        },
        {
          "internalType": "uint256",
          "name": "cap",
          "type": "uint256"
        },
        {
          "internalType": "uint256",
          "name": "initialSupply",
          "type": "uint256"
        }
      ],
      "stateMutability": "nonpayable",
      "type": "constructor"
    },
    {
      "inputs": [],
      "name": "AccessControlBadConfirmation",
      "type": "error"
    },
    {
      "inputs": [
        {
          "internalType": "address",
          "name": "account",
          "type": "address"
        },
        {
          "internalType": "bytes32",
          "name": "neededRole",
          "type": "bytes32"
        }
      ],
      "name": "AccessControlUnauthorizedAccount",
      "type": "error"
    },
    {
      "inputs": [
        {
          "internalType": "uint256",
          "name": "increasedSupply",
          "type": "uint256"
        },
        {
          "internalType": "uint256",
          "name": "cap",
          "type": "uint256"
        }
      ],
      "name": "ERC20ExceededCap",
      "type": "error"
    },
    {
      "inputs": [
        {
          "internalType": "address",
          "name": "spender",
          "type": "address"
        },
        {
          "internalType": "uint256",
          "name": "allowance",
          "type": "uint256"
        },
        {
          "internalType": "uint256",
          "name": "needed",
          "type": "uint256"
        }
      ],
      "name": "ERC20InsufficientAllowance",
      "type": "error"
    },
    {
      "inputs": [
        {
          "internalType": "address",
          "name": "sender",
          "type": "address"
        },
        {
          "internalType": "uint256",
          "name": "balance",
          "type": "uint256"
        },
        {
          "internalType": "uint256",
          "name": "needed",
          "type": "uint256"
        }
      ],
      "name": "ERC20InsufficientBalance",
      "type": "error"
    },
    {
      "inputs": [
        {
          "internalType": "address",
          "name": "approver",
          "type": "address"
        }
      ],
      "name": "ERC20InvalidApprover",
      "type": "error"
    },
    {
      "inputs": [
        {
          "internalType": "uint256",
          "name": "cap",
          "type": "uint256"
        }
      ],
      "name": "ERC20InvalidCap",
      "type": "error"
    },
    {
      "inputs": [
        {
          "internalType": "address",
          "name": "receiver",
          "type": "address"
        }
      ],
      "name": "ERC20InvalidReceiver",
      "type": "error"
    },
    {
      "inputs": [
        {
          "internalType": "address",
          "name": "sender",
          "type": "address"
        }
      ],
      "name": "ERC20InvalidSender",
      "type": "error"
    },
    {
      "inputs": [
        {
          "internalType": "address",
          "name": "spender",
          "type": "address"
        }
      ],
      "name": "ERC20InvalidSpender",
      "type": "error"
    },
    {
      "inputs": [],
      "name": "EnforcedPause",
      "type": "error"
    },
    {
      "inputs": [],
      "name": "ExpectedPause",
      "type": "error"
    },
    {
      "anonymous": false,
      "inputs": [
        {
          "indexed": true,
          "internalType": "address",
          "name": "owner",
          "type": "address"
        },
        {
          "indexed": true,
          "internalType": "address",
          "name": "spender",
          "type": "address"
        },
        {
          "indexed": false,
          "internalType": "uint256",
          "name": "value",
          "type": "uint256"
        }
      ],
      "name": "Approval",
      "type": "event"
    },
    {
      "anonymous": false,
      "inputs": [
        {
          "indexed": false,
          "internalType": "address",
          "name": "account",
          "type": "address"
        }
      ],
      "name": "Paused",
      "type": "event"
    },
    {
      "anonymous": false,
      "inputs": [
        {
          "indexed": true,
          "internalType": "bytes32",
          "name": "role",
          "type": "bytes32"
        },
        {
          "indexed": true,
          "internalType": "bytes32",
          "name": "previousAdminRole",
          "type": "bytes32"
        },
        {
          "indexed": true,
          "internalType": "bytes32",
          "name": "newAdminRole",
          "type": "bytes32"
        }
      ],
      "name": "RoleAdminChanged",
      "type": "event"
    },
    {
      "anonymous": false,
      "inputs": [
        {
          "indexed": true,
          "internalType": "bytes32",
          "name": "role",
          "type": "bytes32"
        },
        {
          "indexed": true,
          "internalType": "address",
          "name": "account",
          "type": "address"
        },
        {
          "indexed": true,
          "internalType": "address",
          "name": "sender",
          "type": "address"
        }
      ],
      "name": "RoleGranted",
      "type": "event"
    },
    {
      "anonymous": false,
      "inputs": [
        {
          "indexed": true,
          "internalType": "bytes32",
          "name": "role",
          "type": "bytes32"
        },
        {
          "indexed": true,
          "internalType": "address",
          "name": "account",
          "type": "address"
        },
        {
          "indexed": true,
          "internalType": "address",
          "name": "sender",
          "type": "address"
        }
      ],
      "name": "RoleRevoked",
      "type": "event"
    },
    {
      "anonymous": false,
      "inputs": [
        {
          "indexed": true,
          "internalType": "address",
          "name": "from",
          "type": "address"
        },
        {
          "indexed": true,
          "internalType": "address",
          "name": "to",
          "type": "address"
        },
        {
          "indexed": false,
          "internalType": "uint256",
          "name": "value",
          "type": "uint256"
        }
      ],
      "name": "Transfer",
      "type": "event"
    },
    {
      "anonymous": false,
      "inputs": [
        {
          "indexed": false,
          "internalType": "address",
          "name": "account",
          "type": "address"
        }
      ],
      "name": "Unpaused",
      "type": "event"
    },
    {
      "inputs": [],
      "name": "DEFAULT_ADMIN_ROLE",
      "outputs": [
        {
          "internalType": "bytes32",
          "name": "",
          "type": "bytes32"
        }
      ],
      "stateMutability": "view",
      "type": "function"
    },
    {
      "inputs": [],
      "name": "MINTER_ROLE",
      "outputs": [
        {
          "internalType": "bytes32",
          "name": "",
          "type": "bytes32"
        }
      ],
      "stateMutability": "view",
      "type": "function"
    },
    {
      "inputs": [],
      "name": "PAUSER_ROLE",
      "outputs": [
        {
          "internalType": "bytes32",
          "name": "",
          "type": "bytes32"
        }
      ],
      "stateMutability": "view",
      "type": "function"
    },
    {
      "inputs": [
        {
          "internalType": "address",
          "name": "owner",
          "type": "address"
        },
        {
          "internalType": "address",
          "name": "spender",
          "type": "address"
        }
      ],
      "name": "allowance",
      "outputs": [
        {
          "internalType": "uint256",
          "name": "",
          "type": "uint256"
        }
      ],
      "stateMutability": "view",
      "type": "function"
    },
    {
      "inputs": [
        {
          "internalType": "address",
          "name": "spender",
          "type": "address"
        },
        {
          "internalType": "uint256",
          "name": "value",
          "type": "uint256"
        }
      ],
      "name": "approve",
      "outputs": [
        {
          "internalType": "bool",
          "name": "",
          "type": "bool"
        }
      ],
      "stateMutability": "nonpayable",
      "type": "function"
    },
    {
      "inputs": [
        {
          "internalType": "address",
          "name": "account",
          "type": "address"
        }
      ],
      "name": "balanceOf",
      "outputs": [
        {
          "internalType": "uint256",
          "name": "",
          "type": "uint256"
        }
      ],
      "stateMutability": "view",
      "type": "function"
    },
    {
      "inputs": [
        {
          "internalType": "uint256",
          "name": "value",
          "type": "uint256"
        }
      ],
      "name": "burn",
      "outputs": [],
      "stateMutability": "nonpayable",
      "type": "function"
    },
    {
      "inputs": [
        {
          "internalType": "address",
          "name": "account",
          "type": "address"
        },
        {
          "internalType": "uint256",
          "name": "value",
          "type": "uint256"
        }
      ],
      "name": "burnFrom",
      "outputs": [],
      "stateMutability": "nonpayable",
      "type": "function"
    },
    {
      "inputs": [],
      "name": "cap",
      "outputs": [
        {
          "internalType": "uint256",
          "name": "",
          "type": "uint256"
        }
      ],
      "stateMutability": "view",
      "type": "function"
    },
    {
      "inputs": [],
      "name": "decimals",
      "outputs": [
        {
          "internalType": "uint8",
          "name": "",
          "type": "uint8"
        }
      ],
      "stateMutability": "view",
      "type": "function"
    },
    {
      "inputs": [
        {
          "internalType": "bytes32",
          "name": "role",
          "type": "bytes32"
        }
      ],
      "name": "getRoleAdmin",
      "outputs": [
        {
          "internalType": "bytes32",
          "name": "",
          "type": "bytes32"
        }
      ],
      "stateMutability": "view",
      "type": "function"
    },
    {
      "inputs": [
        {
          "internalType": "bytes32",
          "name": "role",
          "type": "bytes32"
        },
        {
          "internalType": "address",
          "name": "account",
          "type": "address"
        }
      ],
      "name": "grantRole",
      "outputs": [],
      "stateMutability": "nonpayable",
      "type": "function"
    },
    {
      "inputs": [
        {
          "internalType": "bytes32",
          "name": "role",
          "type": "bytes32"
        },
        {
          "internalType": "address",
          "name": "account",
          "type": "address"
        }
      ],
      "name": "hasRole",
      "outputs": [
        {
          "internalType": "bool",
          "name": "",
          "type": "bool"
        }
      ],
      "stateMutability": "view",
      "type": "function"
    },
    {
      "inputs": [
        {
          "internalType": "address",
          "name": "to",
          "type": "address"
        },
        {
          "internalType": "uint256",
          "name": "amount",
          "type": "uint256"
        }
      ],
      "name": "mint",
      "outputs": [],
      "stateMutability": "nonpayable",
      "type": "function"
    },
    {
      "inputs": [],
      "name": "name",
      "outputs": [
        {
          "internalType": "string",
          "name": "",
          "type": "string"
        }
      ],
      "stateMutability": "view",
      "type": "function"
    },
    {
      "inputs": [],
      "name": "pause",
      "outputs": [],
      "stateMutability": "nonpayable",
      "type": "function"
    },
    {
      "inputs": [],
      "name": "paused",
      "outputs": [
        {
          "internalType": "bool",
          "name": "",
          "type": "bool"
        }
      ],
      "stateMutability": "view",
      "type": "function"
    },
    {
      "inputs": [
        {
          "internalType": "bytes32",
          "name": "role",
          "type": "bytes32"
        },
        {
          "internalType": "address",
          "name": "callerConfirmation",
          "type": "address"
        }
      ],
      "name": "renounceRole",
      "outputs": [],
      "stateMutability": "nonpayable",
      "type": "function"
    },
    {
      "inputs": [
        {
          "internalType": "bytes32",
          "name": "role",
          "type": "bytes32"
        },
        {
          "internalType": "address",
          "name": "account",
          "type": "address"
        }
      ],
      "name": "revokeRole",
      "outputs": [],
      "stateMutability": "nonpayable",
      "type": "function"
    },
    {
      "inputs": [
        {
          "internalType": "bytes4",
          "name": "interfaceId",
          "type": "bytes4"
        }
      ],
      "name": "supportsInterface",
      "outputs": [
        {
          "internalType": "bool",
          "name": "",
          "type": "bool"
        }
      ],
      "stateMutability": "view",
      "type": "function"
    },
    {
      "inputs": [],
      "name": "symbol",
      "outputs": [
        {
          "internalType": "string",
          "name": "",
          "type": "string"
        }
      ],
      "stateMutability": "view",
      "type": "function"
    },
    {
      "inputs": [],
      "name": "totalSupply",
      "outputs": [
        {
          "internalType": "uint256",
          "name": "",
          "type": "uint256"
        }
      ],
      "stateMutability": "view",
      "type": "function"
    },
    {
      "inputs": [
        {
          "internalType": "address",
          "name": "to",
          "type": "address"
        },
        {
          "internalType": "uint256",
          "name": "value",
          "type": "uint256"
        }
      ],
      "name": "transfer",
      "outputs": [
        {
          "internalType": "bool",
          "name": "",
          "type": "bool"
        }
      ],
      "stateMutability": "nonpayable",
      "type": "function"
    },
    {
      "inputs": [
        {
          "internalType": "address",
          "name": "from",
          "type": "address"
        },
        {
          "internalType": "address",
          "name": "to",
          "type": "address"
        },
        {
          "internalType": "uint256",
          "name": "value",
          "type": "uint256"
        }
      ],
      "name": "transferFrom",
      "outputs": [
        {
          "internalType": "bool",
          "name": "",
          "type": "bool"
        }
      ],
      "stateMutability": "nonpayable",
      "type": "function"
    },
    {
      "inputs": [],
      "name": "unpause",
      "outputs": [],
      "stateMutability": "nonpayable",
      "type": "function"
    }
  ],
  "bytecode": "0x60a06040523480156200001157600080fd5b5060405162002c9438038062002c948339818101604052810190620000379190620008c0565b81848481600390816200004b919062000bb1565b5080600490816200005d919062000bb1565b50505060008103620000a95760006040517f392e1e27000000000000000000000000000000000000000000000000000000008152600401620000a0919062000cdb565b60405180910390fd5b806080818152505050620000c76000801b336200014c60201b60201c565b50620000fa7f9f2df0fed2c77648de5860a4cc508cd0818c85b8b8a1ab4ceeef8d981c8956a6336200014c60201b60201c565b506200012d7f65d7a28e3265b37a6474929f336521b332c1681b933f6cb9f3376673440d862a336200014c60201b60201c565b5062000142600033836200025060201b60201c565b5050505062000f5a565b60006200016083836200036260201b60201c565b620002455760016006600085815260200190815260200160002060000160008473ffffffffffffffffffffffffffffffffffffffff1673ffffffffffffffffffffffffffffffffffffffff16815260200190815260200160002060006101000a81548160ff021916908315150217905550620001e1620003cd60201b60201c565b73ffffffffffffffffffffffffffffffffffffffff168273ffffffffffffffffffffffffffffffffffffffff16847f2f8788117e7eff1d82e926ec794901d17c78024a50270940304540a733656f0d60405160405180910390a4600190506200024a565b600090505b92915050565b62000260620003d560201b60201c565b15620002a3576040517f08c379a00000000000000000000000000000000000000000000000000000000081526004016200029a9062000d7f565b60405180910390fd5b600073ffffffffffffffffffffffffffffffffffffffff168373ffffffffffffffffffffffffffffffffffffffff16036200034a57620002e8620003ec60201b60201c565b81620002f9620003f660201b60201c565b62000305919062000dd0565b111562000349576040517f08c379a0000000000000000000000000000000000000000000000000000000008152600401620003409062000e5b565b60405180910390fd5b5b6200035d8383836200040060201b60201c565b505050565b60006006600084815260200190815260200160002060000160008373ffffffffffffffffffffffffffffffffffffffff1673ffffffffffffffffffffffffffffffffffffffff16815260200190815260200160002060009054906101000a900460ff16905092915050565b600033905090565b6000600560009054906101000a900460ff16905090565b6000608051905090565b6000600254905090565b62000413838383620004c260201b60201c565b600073ffffffffffffffffffffffffffffffffffffffff168373ffffffffffffffffffffffffffffffffffffffff1603620004bd5760006200045a620003ec60201b60201c565b905060006200046e620003f660201b60201c565b905081811115620004ba5780826040517f9e79f854000000000000000000000000000000000000000000000000000000008152600401620004b192919062000e8e565b60405180910390fd5b50505b505050565b600073ffffffffffffffffffffffffffffffffffffffff168373ffffffffffffffffffffffffffffffffffffffff1603620005185780600260008282546200050b919062000dd0565b92505081905550620005ee565b60008060008573ffffffffffffffffffffffffffffffffffffffff1673ffffffffffffffffffffffffffffffffffffffff16815260200190815260200160002054905081811015620005a7578381836040517fe450d38c0000000000000000000000000000000000000000000000000000000081526004016200059e9392919062000f00565b60405180910390fd5b8181036000808673ffffffffffffffffffffffffffffffffffffffff1673ffffffffffffffffffffffffffffffffffffffff16815260200190815260200160002081905550505b600073ffffffffffffffffffffffffffffffffffffffff168273ffffffffffffffffffffffffffffffffffffffff160362000639578060026000828254039250508190555062000686565b806000808473ffffffffffffffffffffffffffffffffffffffff1673ffffffffffffffffffffffffffffffffffffffff168152602001908152602001600020600082825401925050819055505b8173ffffffffffffffffffffffffffffffffffffffff168373ffffffffffffffffffffffffffffffffffffffff167fddf252ad1be2c89b69c2b068fc378daa952ba7f163c4a11628f55a4df523b3ef83604051620006e5919062000f3d565b60405180910390a3505050565b6000604051905090565b600080fd5b600080fd5b600080fd5b600080fd5b6000601f19601f8301169050919050565b7f4e487b7100000000000000000000000000000000000000000000000000000000600052604160045260246000fd5b6200075b8262000710565b810181811067ffffffffffffffff821117156200077d576200077c62000721565b5b80604052505050565b600062000792620006f2565b9050620007a0828262000750565b919050565b600067ffffffffffffffff821115620007c357620007c262000721565b5b620007ce8262000710565b9050602081019050919050565b60005b83811015620007fb578082015181840152602081019050620007de565b60008484015250505050565b60006200081e6200081884620007a5565b62000786565b9050828152602081018484840111156200083d576200083c6200070b565b5b6200084a848285620007db565b509392505050565b600082601f8301126200086a576200086962000706565b5b81516200087c84826020860162000807565b91505092915050565b6000819050919050565b6200089a8162000885565b8114620008a657600080fd5b50565b600081519050620008ba816200088f565b92915050565b60008060008060808587031215620008dd57620008dc620006fc565b5b600085015167ffffffffffffffff811115620008fe57620008fd62000701565b5b6200090c8782880162000852565b945050602085015167ffffffffffffffff81111562000930576200092f62000701565b5b6200093e8782880162000852565b93505060406200095187828801620008a9565b92505060606200096487828801620008a9565b91505092959194509250565b600081519050919050565b7f4e487b7100000000000000000000000000000000000000000000000000000000600052602260045260246000fd5b60006002820490506001821680620009c357607f821691505b602082108103620009d957620009d86200097b565b5b50919050565b60008190508160005260206000209050919050565b60006020601f8301049050919050565b600082821b905092915050565b60006008830262000a437fffffffffffffffffffffffffffffffffffffffffffffffffffffffffffffffff8262000a04565b62000a4f868362000a04565b95508019841693508086168417925050509392505050565b6000819050919050565b600062000a9262000a8c62000a868462000885565b62000a67565b62000885565b9050919050565b6000819050919050565b62000aae8362000a71565b62000ac662000abd8262000a99565b84845462000a11565b825550505050565b600090565b62000add62000ace565b62000aea81848462000aa3565b505050565b5b8181101562000b125762000b0660008262000ad3565b60018101905062000af0565b5050565b601f82111562000b615762000b2b81620009df565b62000b3684620009f4565b8101602085101562000b46578190505b62000b5e62000b5585620009f4565b83018262000aef565b50505b505050565b600082821c905092915050565b600062000b866000198460080262000b66565b1980831691505092915050565b600062000ba1838362000b73565b9150826002028217905092915050565b62000bbc8262000970565b67ffffffffffffffff81111562000bd85762000bd762000721565b5b62000be48254620009aa565b62000bf182828562000b16565b600060209050601f83116001811462000c29576000841562000c14578287015190505b62000c20858262000b93565b86555062000c90565b601f19841662000c3986620009df565b60005b8281101562000c635784890151825560018201915060208501945060208101905062000c3c565b8683101562000c83578489015162000c7f601f89168262000b73565b8355505b6001600288020188555050505b505050505050565b6000819050919050565b600062000cc362000cbd62000cb78462000c98565b62000a67565b62000885565b9050919050565b62000cd58162000ca2565b82525050565b600060208201905062000cf2600083018462000cca565b92915050565b600082825260208201905092915050565b7f47656e61546f6b656e3a20746f6b656e207472616e73666572207768696c652060008201527f7061757365640000000000000000000000000000000000000000000000000000602082015250565b600062000d6760268362000cf8565b915062000d748262000d09565b604082019050919050565b6000602082019050818103600083015262000d9a8162000d58565b9050919050565b7f4e487b7100000000000000000000000000000000000000000000000000000000600052601160045260246000fd5b600062000ddd8262000885565b915062000dea8362000885565b925082820190508082111562000e055762000e0462000da1565b5b92915050565b7f47656e61546f6b656e3a20636170206578636565646564000000000000000000600082015250565b600062000e4360178362000cf8565b915062000e508262000e0b565b602082019050919050565b6000602082019050818103600083015262000e768162000e34565b9050919050565b62000e888162000885565b82525050565b600060408201905062000ea5600083018562000e7d565b62000eb4602083018462000e7d565b9392505050565b600073ffffffffffffffffffffffffffffffffffffffff82169050919050565b600062000ee88262000ebb565b9050919050565b62000efa8162000edb565b82525050565b600060608201905062000f17600083018662000eef565b62000f26602083018562000e7d565b62000f35604083018462000e7d565b949350505050565b600060208201905062000f54600083018462000e7d565b92915050565b608051611d1e62000f7660003960006106790152611d1e6000f3fe608060405234801561001057600080fd5b50600436106101735760003560e01c806342966c68116100de57806395d89b4111610097578063d539139311610071578063d53913931461043a578063d547741f14610458578063dd62ed3e14610474578063e63ab1e9146104a457610173565b806395d89b41146103ce578063a217fddf146103ec578063a9059cbb1461040a57610173565b806342966c681461030e5780635c975abb1461032a57806370a082311461034857806379cc6790146103785780638456cb591461039457806391d148541461039e57610173565b80632f2ff15d116101305780632f2ff15d14610274578063313ce56714610290578063355274ea146102ae57806336568abe146102cc5780633f4ba83a146102e857806340c10f19146102f257610173565b806301ffc9a71461017857806306fdde03146101a8578063095ea7b3146101c657806318160ddd146101f657806323b872dd14610214578063248a9ca314610244575b600080fd5b610192600480360381019061018d9190611670565b6104c2565b60405161019f91906116b8565b60405180910390f35b6101b061053c565b6040516101bd9190611763565b60405180910390f35b6101e060048036038101906101db9190611819565b6105ce565b6040516101ed91906116b8565b60405180910390f35b6101fe6105f1565b60405161020b9190611868565b60405180910390f35b61022e60048036038101906102299190611883565b6105fb565b60405161023b91906116b8565b60405180910390f35b61025e6004803603810190610259919061190c565b61062a565b60405161026b9190611948565b60405180910390f35b61028e60048036038101906102899190611963565b61064a565b005b61029861066c565b6040516102a591906119bf565b60405180910390f35b6102b6610675565b6040516102c39190611868565b60405180910390f35b6102e660048036038101906102e19190611963565b61069d565b005b6102f0610718565b005b61030c60048036038101906103079190611819565b61074d565b005b610328600480360381019061032391906119da565b610788565b005b61033261079c565b60405161033f91906116b8565b60405180910390f35b610362600480360381019061035d9190611a07565b6107b3565b60405161036f9190611868565b60405180910390f35b610392600480360381019061038d9190611819565b6107fb565b005b61039c61081b565b005b6103b860048036038101906103b39190611963565b610850565b6040516103c591906116b8565b60405180910390f35b6103d66108bb565b6040516103e39190611763565b60405180910390f35b6103f461094d565b6040516104019190611948565b60405180910390f35b610424600480360381019061041f9190611819565b610954565b60405161043191906116b8565b60405180910390f35b610442610977565b60405161044f9190611948565b60405180910390f35b610472600480360381019061046d9190611963565b61099b565b005b61048e60048036038101906104899190611a34565b6109bd565b60405161049b9190611868565b60405180910390f35b6104ac610a44565b6040516104b99190611948565b60405180910390f35b60007f7965db0b000000000000000000000000000000000000000000000000000000007bffffffffffffffffffffffffffffffffffffffffffffffffffffffff1916827bffffffffffffffffffffffffffffffffffffffffffffffffffffffff19161480610535575061053482610a68565b5b9050919050565b60606003805461054b90611aa3565b80601f016020809104026020016040519081016040528092919081815260200182805461057790611aa3565b80156105c45780601f10610599576101008083540402835291602001916105c4565b820191906000526020600020905b8154815290600101906020018083116105a757829003601f168201915b5050505050905090565b6000806105d9610ad2565b90506105e6818585610ada565b600191505092915050565b6000600254905090565b600080610606610ad2565b9050610613858285610aec565b61061e858585610b81565b60019150509392505050565b600060066000838152602001908152602001600020600101549050919050565b6106538261062a565b61065c81610c75565b6106668383610c89565b50505050565b60006012905090565b60007f0000000000000000000000000000000000000000000000000000000000000000905090565b6106a5610ad2565b73ffffffffffffffffffffffffffffffffffffffff168173ffffffffffffffffffffffffffffffffffffffff1614610709576040517f6697b23200000000000000000000000000000000000000000000000000000000815260040160405180910390fd5b6107138282610d7b565b505050565b7f65d7a28e3265b37a6474929f336521b332c1681b933f6cb9f3376673440d862a61074281610c75565b61074a610e6e565b50565b7f9f2df0fed2c77648de5860a4cc508cd0818c85b8b8a1ab4ceeef8d981c8956a661077781610c75565b61078360008484610ed1565b505050565b610799610793610ad2565b82610fba565b50565b6000600560009054906101000a900460ff16905090565b60008060008373ffffffffffffffffffffffffffffffffffffffff1673ffffffffffffffffffffffffffffffffffffffff168152602001908152602001600020549050919050565b61080d82610807610ad2565b83610aec565b6108178282610fba565b5050565b7f65d7a28e3265b37a6474929f336521b332c1681b933f6cb9f3376673440d862a61084581610c75565b61084d61103c565b50565b60006006600084815260200190815260200160002060000160008373ffffffffffffffffffffffffffffffffffffffff1673ffffffffffffffffffffffffffffffffffffffff16815260200190815260200160002060009054906101000a900460ff16905092915050565b6060600480546108ca90611aa3565b80601f01602080910402602001604051908101604052809291908181526020018280546108f690611aa3565b80156109435780601f1061091857610100808354040283529160200191610943565b820191906000526020600020905b81548152906001019060200180831161092657829003601f168201915b5050505050905090565b6000801b81565b60008061095f610ad2565b905061096c818585610b81565b600191505092915050565b7f9f2df0fed2c77648de5860a4cc508cd0818c85b8b8a1ab4ceeef8d981c8956a681565b6109a48261062a565b6109ad81610c75565b6109b78383610d7b565b50505050565b6000600160008473ffffffffffffffffffffffffffffffffffffffff1673ffffffffffffffffffffffffffffffffffffffff16815260200190815260200160002060008373ffffffffffffffffffffffffffffffffffffffff1673ffffffffffffffffffffffffffffffffffffffff16815260200190815260200160002054905092915050565b7f65d7a28e3265b37a6474929f336521b332c1681b933f6cb9f3376673440d862a81565b60007f01ffc9a7000000000000000000000000000000000000000000000000000000007bffffffffffffffffffffffffffffffffffffffffffffffffffffffff1916827bffffffffffffffffffffffffffffffffffffffffffffffffffffffff1916149050919050565b600033905090565b610ae7838383600161109f565b505050565b6000610af884846109bd565b90507fffffffffffffffffffffffffffffffffffffffffffffffffffffffffffffffff811015610b7b5781811015610b6b578281836040517ffb8f41b2000000000000000000000000000000000000000000000000000000008152600401610b6293929190611ae3565b60405180910390fd5b610b7a8484848403600061109f565b5b50505050565b600073ffffffffffffffffffffffffffffffffffffffff168373ffffffffffffffffffffffffffffffffffffffff1603610bf35760006040517f96c6fd1e000000000000000000000000000000000000000000000000000000008152600401610bea9190611b1a565b60405180910390fd5b600073ffffffffffffffffffffffffffffffffffffffff168273ffffffffffffffffffffffffffffffffffffffff1603610c655760006040517fec442f05000000000000000000000000000000000000000000000000000000008152600401610c5c9190611b1a565b60405180910390fd5b610c70838383610ed1565b505050565b610c8681610c81610ad2565b611276565b50565b6000610c958383610850565b610d705760016006600085815260200190815260200160002060000160008473ffffffffffffffffffffffffffffffffffffffff1673ffffffffffffffffffffffffffffffffffffffff16815260200190815260200160002060006101000a81548160ff021916908315150217905550610d0d610ad2565b73ffffffffffffffffffffffffffffffffffffffff168273ffffffffffffffffffffffffffffffffffffffff16847f2f8788117e7eff1d82e926ec794901d17c78024a50270940304540a733656f0d60405160405180910390a460019050610d75565b600090505b92915050565b6000610d878383610850565b15610e635760006006600085815260200190815260200160002060000160008473ffffffffffffffffffffffffffffffffffffffff1673ffffffffffffffffffffffffffffffffffffffff16815260200190815260200160002060006101000a81548160ff021916908315150217905550610e00610ad2565b73ffffffffffffffffffffffffffffffffffffffff168273ffffffffffffffffffffffffffffffffffffffff16847ff6391f5c32d9c69d2a47ea670b442974b53935d1edc7fd64eb21e047a839171b60405160405180910390a460019050610e68565b600090505b92915050565b610e766112c7565b6000600560006101000a81548160ff0219169083151502179055507f5db9ee0a495bf2e6ff9c91a7834c1ba4fdd244a5e8aa4e537bd38aeae4b073aa610eba610ad2565b604051610ec79190611b1a565b60405180910390a1565b610ed961079c565b15610f19576040517f08c379a0000000000000000000000000000000000000000000000000000000008152600401610f1090611ba7565b60405180910390fd5b600073ffffffffffffffffffffffffffffffffffffffff168373ffffffffffffffffffffffffffffffffffffffff1603610faa57610f55610675565b81610f5e6105f1565b610f689190611bf6565b1115610fa9576040517f08c379a0000000000000000000000000000000000000000000000000000000008152600401610fa090611c76565b60405180910390fd5b5b610fb5838383611307565b505050565b600073ffffffffffffffffffffffffffffffffffffffff168273ffffffffffffffffffffffffffffffffffffffff160361102c5760006040517f96c6fd1e0000000000000000000000000000000000000000000000000000000081526004016110239190611b1a565b60405180910390fd5b61103882600083610ed1565b5050565b6110446113ad565b6001600560006101000a81548160ff0219169083151502179055507f62e78cea01bee320cd4e420270b5ea74000d11b0c9f74754ebdbfc544b05a258611088610ad2565b6040516110959190611b1a565b60405180910390a1565b600073ffffffffffffffffffffffffffffffffffffffff168473ffffffffffffffffffffffffffffffffffffffff16036111115760006040517fe602df050000000000000000000000000000000000000000000000000000000081526004016111089190611b1a565b60405180910390fd5b600073ffffffffffffffffffffffffffffffffffffffff168373ffffffffffffffffffffffffffffffffffffffff16036111835760006040517f94280d6200000000000000000000000000000000000000000000000000000000815260040161117a9190611b1a565b60405180910390fd5b81600160008673ffffffffffffffffffffffffffffffffffffffff1673ffffffffffffffffffffffffffffffffffffffff16815260200190815260200160002060008573ffffffffffffffffffffffffffffffffffffffff1673ffffffffffffffffffffffffffffffffffffffff168152602001908152602001600020819055508015611270578273ffffffffffffffffffffffffffffffffffffffff168473ffffffffffffffffffffffffffffffffffffffff167f8c5be1e5ebec7d5bd14f71427d1e84f3dd0314c0f7b2291e5b200ac8c7c3b925846040516112679190611868565b60405180910390a35b50505050565b6112808282610850565b6112c35780826040517fe2517d3f0000000000000000000000000000000000000000000000000000000081526004016112ba929190611c96565b60405180910390fd5b5050565b6112cf61079c565b611305576040517f8dfc202b00000000000000000000000000000000000000000000000000000000815260040160405180910390fd5b565b6113128383836113ee565b600073ffffffffffffffffffffffffffffffffffffffff168373ffffffffffffffffffffffffffffffffffffffff16036113a8576000611350610675565b9050600061135c6105f1565b9050818111156113a55780826040517f9e79f85400000000000000000000000000000000000000000000000000000000815260040161139c929190611cbf565b60405180910390fd5b50505b505050565b6113b561079c565b156113ec576040517fd93c066500000000000000000000000000000000000000000000000000000000815260040160405180910390fd5b565b600073ffffffffffffffffffffffffffffffffffffffff168373ffffffffffffffffffffffffffffffffffffffff16036114405780600260008282546114349190611bf6565b92505081905550611513565b60008060008573ffffffffffffffffffffffffffffffffffffffff1673ffffffffffffffffffffffffffffffffffffffff168152602001908152602001600020549050818110156114cc578381836040517fe450d38c0000000000000000000000000000000000000000000000000000000081526004016114c393929190611ae3565b60405180910390fd5b8181036000808673ffffffffffffffffffffffffffffffffffffffff1673ffffffffffffffffffffffffffffffffffffffff16815260200190815260200160002081905550505b600073ffffffffffffffffffffffffffffffffffffffff168273ffffffffffffffffffffffffffffffffffffffff160361155c57806002600082825403925050819055506115a9565b806000808473ffffffffffffffffffffffffffffffffffffffff1673ffffffffffffffffffffffffffffffffffffffff168152602001908152602001600020600082825401925050819055505b8173ffffffffffffffffffffffffffffffffffffffff168373ffffffffffffffffffffffffffffffffffffffff167fddf252ad1be2c89b69c2b068fc378daa952ba7f163c4a11628f55a4df523b3ef836040516116069190611868565b60405180910390a3505050565b600080fd5b60007fffffffff0000000000000000000000000000000000000000000000000000000082169050919050565b61164d81611618565b811461165857600080fd5b50565b60008135905061166a81611644565b92915050565b60006020828403121561168657611685611613565b5b60006116948482850161165b565b91505092915050565b60008115159050919050565b6116b28161169d565b82525050565b60006020820190506116cd60008301846116a9565b92915050565b600081519050919050565b600082825260208201905092915050565b60005b8381101561170d5780820151818401526020810190506116f2565b60008484015250505050565b6000601f19601f8301169050919050565b6000611735826116d3565b61173f81856116de565b935061174f8185602086016116ef565b61175881611719565b840191505092915050565b6000602082019050818103600083015261177d818461172a565b905092915050565b600073ffffffffffffffffffffffffffffffffffffffff82169050919050565b60006117b082611785565b9050919050565b6117c0816117a5565b81146117cb57600080fd5b50565b6000813590506117dd816117b7565b92915050565b6000819050919050565b6117f6816117e3565b811461180157600080fd5b50565b600081359050611813816117ed565b92915050565b600080604083850312156118305761182f611613565b5b600061183e858286016117ce565b925050602061184f85828601611804565b9150509250929050565b611862816117e3565b82525050565b600060208201905061187d6000830184611859565b92915050565b60008060006060848603121561189c5761189b611613565b5b60006118aa868287016117ce565b93505060206118bb868287016117ce565b92505060406118cc86828701611804565b9150509250925092565b6000819050919050565b6118e9816118d6565b81146118f457600080fd5b50565b600081359050611906816118e0565b92915050565b60006020828403121561192257611921611613565b5b6000611930848285016118f7565b91505092915050565b611942816118d6565b82525050565b600060208201905061195d6000830184611939565b92915050565b6000806040838503121561197a57611979611613565b5b6000611988858286016118f7565b9250506020611999858286016117ce565b9150509250929050565b600060ff82169050919050565b6119b9816119a3565b82525050565b60006020820190506119d460008301846119b0565b92915050565b6000602082840312156119f0576119ef611613565b5b60006119fe84828501611804565b91505092915050565b600060208284031215611a1d57611a1c611613565b5b6000611a2b848285016117ce565b91505092915050565b60008060408385031215611a4b57611a4a611613565b5b6000611a59858286016117ce565b9250506020611a6a858286016117ce565b9150509250929050565b7f4e487b7100000000000000000000000000000000000000000000000000000000600052602260045260246000fd5b60006002820490506001821680611abb57607f821691505b602082108103611ace57611acd611a74565b5b50919050565b611add816117a5565b82525050565b6000606082019050611af86000830186611ad4565b611b056020830185611859565b611b126040830184611859565b949350505050565b6000602082019050611b2f6000830184611ad4565b92915050565b7f47656e61546f6b656e3a20746f6b656e207472616e73666572207768696c652060008201527f7061757365640000000000000000000000000000000000000000000000000000602082015250565b6000611b916026836116de565b9150611b9c82611b35565b604082019050919050565b60006020820190508181036000830152611bc081611b84565b9050919050565b7f4e487b7100000000000000000000000000000000000000000000000000000000600052601160045260246000fd5b6000611c01826117e3565b9150611c0c836117e3565b9250828201905080821115611c2457611c23611bc7565b5b92915050565b7f47656e61546f6b656e3a20636170206578636565646564000000000000000000600082015250565b6000611c606017836116de565b9150611c6b82611c2a565b602082019050919050565b60006020820190508181036000830152611c8f81611c53565b9050919050565b6000604082019050611cab6000830185611ad4565b611cb86020830184611939565b9392505050565b6000604082019050611cd46000830185611859565b611ce16020830184611859565b939250505056fea26469706673582212209b278fcd82c122485480b140454eddaf8ee160d47b6f629bdda6fedfd347a10264736f6c63430008180033",
  "linkReferences": {},
  "deployedLinkReferences": {}
}